{
  "contractName": "SmartContract",
  "abi": [
    {
      "constant": true,
      "inputs": [
        {
          "name": "",
          "type": "uint256"
        }
      ],
      "name": "proposals",
      "outputs": [
        {
          "name": "name",
          "type": "string"
        },
        {
          "name": "proposal",
          "type": "string"
        },
        {
          "name": "voteCount",
          "type": "uint256"
        }
      ],
      "payable": false,
      "stateMutability": "view",
      "type": "function"
    },
    {
      "constant": true,
      "inputs": [
        {
          "name": "",
          "type": "address"
        }
      ],
      "name": "voterDetails",
      "outputs": [
        {
          "name": "voterAddress",
          "type": "address"
        },
        {
          "name": "name",
          "type": "string"
        },
        {
          "name": "hasVoted",
          "type": "bool"
        },
        {
          "name": "isVerified",
          "type": "bool"
        }
      ],
      "payable": false,
      "stateMutability": "view",
      "type": "function"
    },
    {
      "constant": true,
      "inputs": [],
      "name": "owner",
      "outputs": [
        {
          "name": "",
          "type": "address"
        }
      ],
      "payable": false,
      "stateMutability": "view",
      "type": "function"
    },
    {
      "constant": true,
      "inputs": [
        {
          "name": "",
          "type": "uint256"
        }
      ],
      "name": "voters",
      "outputs": [
        {
          "name": "",
          "type": "address"
        }
      ],
      "payable": false,
      "stateMutability": "view",
      "type": "function"
    },
    {
      "inputs": [],
      "payable": false,
      "stateMutability": "nonpayable",
      "type": "constructor"
    },
    {
      "constant": true,
      "inputs": [],
      "name": "getOwner",
      "outputs": [
        {
          "name": "",
          "type": "address"
        }
      ],
      "payable": false,
      "stateMutability": "view",
      "type": "function"
    },
    {
      "constant": false,
      "inputs": [
        {
          "name": "_name",
          "type": "string"
        },
        {
          "name": "_proposal",
          "type": "string"
        }
      ],
      "name": "addProposal",
      "outputs": [],
      "payable": false,
      "stateMutability": "nonpayable",
      "type": "function"
    },
    {
      "constant": true,
      "inputs": [],
      "name": "getProposals",
      "outputs": [
        {
          "name": "",
          "type": "uint256"
        }
      ],
      "payable": false,
      "stateMutability": "view",
      "type": "function"
    },
    {
      "constant": true,
      "inputs": [
        {
          "name": "_count",
          "type": "uint256"
        }
      ],
      "name": "getAllProposals",
      "outputs": [
        {
          "name": "",
          "type": "string"
        }
      ],
      "payable": false,
      "stateMutability": "view",
      "type": "function"
    },
    {
      "constant": false,
      "inputs": [
        {
          "name": "_name",
          "type": "string"
        }
      ],
      "name": "requestVoter",
      "outputs": [],
      "payable": false,
      "stateMutability": "nonpayable",
      "type": "function"
    },
    {
      "constant": true,
      "inputs": [],
      "name": "getVoterCount",
      "outputs": [
        {
          "name": "",
          "type": "uint256"
        }
      ],
      "payable": false,
      "stateMutability": "view",
      "type": "function"
    },
    {
      "constant": false,
      "inputs": [
        {
          "name": "_address",
          "type": "address"
        }
      ],
      "name": "verifyVoter",
      "outputs": [],
      "payable": false,
      "stateMutability": "nonpayable",
      "type": "function"
    },
    {
      "constant": false,
      "inputs": [
        {
          "name": "candidateId",
          "type": "uint256"
        }
      ],
      "name": "vote",
      "outputs": [],
      "payable": false,
      "stateMutability": "nonpayable",
      "type": "function"
    },
    {
      "constant": false,
      "inputs": [],
      "name": "startElection",
      "outputs": [],
      "payable": false,
      "stateMutability": "nonpayable",
      "type": "function"
    },
    {
      "constant": true,
      "inputs": [],
      "name": "getStart",
      "outputs": [
        {
          "name": "",
          "type": "bool"
        }
      ],
      "payable": false,
      "stateMutability": "view",
      "type": "function"
    },
    {
      "constant": true,
      "inputs": [],
      "name": "getEnd",
      "outputs": [
        {
          "name": "",
          "type": "bool"
        }
      ],
      "payable": false,
      "stateMutability": "view",
      "type": "function"
    }
  ],
  "bytecode": "0x6060604052341561000f57600080fd5b336000806101000a81548173ffffffffffffffffffffffffffffffffffffffff021916908373ffffffffffffffffffffffffffffffffffffffff160217905550600060018190555060006002819055506000600360006101000a81548160ff0219169083151502179055506000600360016101000a81548160ff021916908315150217905550610fd3806100a46000396000f300606060405236156100d9576000357c0100000000000000000000000000000000000000000000000000000000900463ffffffff1680630121b93f146100de578063013cf08b1461010157806309bd09501461024a57806311174a291461028357806323d1c95e146102ac5780635938750d1461034c5780635f5c243c1461046457806362564c48146104c157806362d73eb8146104ea578063893d20e8146104ff5780638da5cb5b146105545780639f05a36d146105a9578063bf8ca1aa146105d6578063c5292c6714610672578063da58c7d91461069f575b600080fd5b34156100e957600080fd5b6100ff6004808035906020019091905050610702565b005b341561010c57600080fd5b610122600480803590602001909190505061088d565b6040518080602001806020018481526020018381038352868181546001816001161561010002031660029004815260200191508054600181600116156101000203166002900480156101b55780601f1061018a576101008083540402835291602001916101b5565b820191906000526020600020905b81548152906001019060200180831161019857829003601f168201915b50508381038252858181546001816001161561010002031660029004815260200191508054600181600116156101000203166002900480156102385780601f1061020d57610100808354040283529160200191610238565b820191906000526020600020905b81548152906001019060200180831161021b57829003601f168201915b50509550505050505060405180910390f35b341561025557600080fd5b610281600480803573ffffffffffffffffffffffffffffffffffffffff169060200190919050506108b5565b005b341561028e57600080fd5b61029661096e565b6040518082815260200191505060405180910390f35b34156102b757600080fd5b61034a600480803590602001908201803590602001908080601f0160208091040260200160405190810160405280939291908181526020018383808284378201915050505050509190803590602001908201803590602001908080601f01602080910402602001604051908101604052809392919081815260200183838082843782019150505050505091905050610978565b005b341561035757600080fd5b610383600480803573ffffffffffffffffffffffffffffffffffffffff16906020019091905050610a11565b604051808573ffffffffffffffffffffffffffffffffffffffff1673ffffffffffffffffffffffffffffffffffffffff1681526020018060200184151515158152602001831515151581526020018281038252858181546001816001161561010002031660029004815260200191508054600181600116156101000203166002900480156104525780601f1061042757610100808354040283529160200191610452565b820191906000526020600020905b81548152906001019060200180831161043557829003601f168201915b50509550505050505060405180910390f35b341561046f57600080fd5b6104bf600480803590602001908201803590602001908080601f01602080910402602001604051908101604052809392919081815260200183838082843782019150505050505091905050610a7a565b005b34156104cc57600080fd5b6104d4610c21565b6040518082815260200191505060405180910390f35b34156104f557600080fd5b6104fd610c2b565b005b341561050a57600080fd5b610512610cbe565b604051808273ffffffffffffffffffffffffffffffffffffffff1673ffffffffffffffffffffffffffffffffffffffff16815260200191505060405180910390f35b341561055f57600080fd5b610567610ce7565b604051808273ffffffffffffffffffffffffffffffffffffffff1673ffffffffffffffffffffffffffffffffffffffff16815260200191505060405180910390f35b34156105b457600080fd5b6105bc610d0c565b604051808215151515815260200191505060405180910390f35b34156105e157600080fd5b6105f76004808035906020019091905050610d23565b6040518080602001828103825283818151815260200191508051906020019080838360005b8381101561063757808201518184015260208101905061061c565b50505050905090810190601f1680156106645780820380516001836020036101000a031916815260200191505b509250505060405180910390f35b341561067d57600080fd5b610685610de1565b604051808215151515815260200191505060405180910390f35b34156106aa57600080fd5b6106c06004808035906020019091905050610df8565b604051808273ffffffffffffffffffffffffffffffffffffffff1673ffffffffffffffffffffffffffffffffffffffff16815260200191505060405180910390f35b60001515600660003373ffffffffffffffffffffffffffffffffffffffff1673ffffffffffffffffffffffffffffffffffffffff16815260200190815260200160002060020160009054906101000a900460ff16151514151561076457600080fd5b60011515600660003373ffffffffffffffffffffffffffffffffffffffff1673ffffffffffffffffffffffffffffffffffffffff16815260200190815260200160002060020160019054906101000a900460ff1615151415156107c657600080fd5b60011515600360009054906101000a900460ff1615151415156107e857600080fd5b60001515600360019054906101000a900460ff16151514151561080a57600080fd5b600160046000838152602001908152602001600020600201600082825401925050819055506001600660003373ffffffffffffffffffffffffffffffffffffffff1673ffffffffffffffffffffffffffffffffffffffff16815260200190815260200160002060020160006101000a81548160ff02191690831515021790555050565b6004602052806000526040600020600091509050806000019080600101908060020154905083565b6000809054906101000a900473ffffffffffffffffffffffffffffffffffffffff1673ffffffffffffffffffffffffffffffffffffffff163373ffffffffffffffffffffffffffffffffffffffff1614151561091057600080fd5b6001600660008373ffffffffffffffffffffffffffffffffffffffff1673ffffffffffffffffffffffffffffffffffffffff16815260200190815260200160002060020160016101000a81548160ff02191690831515021790555050565b6000600254905090565b610980610e37565b606060405190810160405280848152602001838152602001600081525090508060046000600154815260200190815260200160002060008201518160000190805190602001906109d1929190610e65565b5060208201518160010190805190602001906109ee929190610e65565b506040820151816002015590505060018060008282540192505081905550505050565b60066020528060005260406000206000915090508060000160009054906101000a900473ffffffffffffffffffffffffffffffffffffffff169080600101908060020160009054906101000a900460ff16908060020160019054906101000a900460ff16905084565b610a82610ee5565b6080604051908101604052803373ffffffffffffffffffffffffffffffffffffffff16815260200183815260200160001515815260200160001515815250905080600660003373ffffffffffffffffffffffffffffffffffffffff1673ffffffffffffffffffffffffffffffffffffffff16815260200190815260200160002060008201518160000160006101000a81548173ffffffffffffffffffffffffffffffffffffffff021916908373ffffffffffffffffffffffffffffffffffffffff1602179055506020820151816001019080519060200190610b65929190610e65565b5060408201518160020160006101000a81548160ff02191690831515021790555060608201518160020160016101000a81548160ff02191690831515021790555090505060058054806001018281610bbd9190610f2e565b9160005260206000209001600033909190916101000a81548173ffffffffffffffffffffffffffffffffffffffff021916908373ffffffffffffffffffffffffffffffffffffffff1602179055505060016002600082825401925050819055505050565b6000600154905090565b6000809054906101000a900473ffffffffffffffffffffffffffffffffffffffff1673ffffffffffffffffffffffffffffffffffffffff163373ffffffffffffffffffffffffffffffffffffffff16141515610c8657600080fd5b6001600360006101000a81548160ff0219169083151502179055506000600360016101000a81548160ff021916908315150217905550565b60008060009054906101000a900473ffffffffffffffffffffffffffffffffffffffff16905090565b6000809054906101000a900473ffffffffffffffffffffffffffffffffffffffff1681565b6000600360019054906101000a900460ff16905090565b610d2b610f5a565b600460008381526020019081526020016000206001018054600181600116156101000203166002900480601f016020809104026020016040519081016040528092919081815260200182805460018160011615610100020316600290048015610dd55780601f10610daa57610100808354040283529160200191610dd5565b820191906000526020600020905b815481529060010190602001808311610db857829003601f168201915b50505050509050919050565b6000600360009054906101000a900460ff16905090565b600581815481101515610e0757fe5b90600052602060002090016000915054906101000a900473ffffffffffffffffffffffffffffffffffffffff1681565b606060405190810160405280610e4b610f6e565b8152602001610e58610f6e565b8152602001600081525090565b828054600181600116156101000203166002900490600052602060002090601f016020900481019282601f10610ea657805160ff1916838001178555610ed4565b82800160010185558215610ed4579182015b82811115610ed3578251825591602001919060010190610eb8565b5b509050610ee19190610f82565b5090565b608060405190810160405280600073ffffffffffffffffffffffffffffffffffffffff168152602001610f16610f6e565b81526020016000151581526020016000151581525090565b815481835581811511610f5557818360005260206000209182019101610f549190610f82565b5b505050565b602060405190810160405280600081525090565b602060405190810160405280600081525090565b610fa491905b80821115610fa0576000816000905550600101610f88565b5090565b905600a165627a7a723058202ec51220b5b362766ed4f909fb88abac20078f97714c363c5eee5880d2ac8eee0029",
  "source": "pragma solidity ^0.4.7;\r\n\r\ncontract SmartContract {\r\n    address public owner;\r\n    uint proposalCount;\r\n    uint voterCount;\r\n    bool start;\r\n    bool end;\r\n\r\n    // constructor..\r\n\r\n    function SmartContract() public {\r\n        owner = msg.sender;\r\n        proposalCount = 0;\r\n        voterCount = 0;\r\n        start = false;\r\n        end = false;\r\n    }\r\n\r\n    function getOwner() public view returns(address){\r\n        return owner;\r\n    }\r\n    // modifiers are used to modify the behaviour of a function.\r\n    modifier onlyAdmin(){\r\n        require(msg.sender == owner); \r\n        _; // added in a modifier, to set when to execute the function\r\n        // here it will execute after the require has been fulfilled.\r\n    }\r\n\r\n    struct Proposal{\r\n        string name;\r\n        string proposal;\r\n        uint voteCount;\r\n    }\r\n\r\n    mapping(uint => Proposal) public proposals;\r\n\r\n    // add proposal\r\n\r\n    function addProposal(string _name,string _proposal) public  {\r\n        Proposal memory newProposal = Proposal({\r\n            name: _name,\r\n            proposal: _proposal,\r\n            voteCount: 0\r\n        });\r\n        proposals[proposalCount] = newProposal;\r\n        proposalCount += 1;\r\n    }\r\n    // get number of proposals\r\n\r\n    function getProposals() public view returns(uint){\r\n        return proposalCount;\r\n    }\r\n\r\n    function getAllProposals(uint _count) public view returns(string){\r\n            return proposals[_count].proposal;\r\n    }\r\n\r\n    //     function verifyVoter(address _address) public onlyAdmin {\r\n    //     voterDetails[_address].isVerified = true;\r\n    // }\r\n\r\n    struct Voter{\r\n        address voterAddress;\r\n        string name;\r\n        bool hasVoted;\r\n        bool isVerified;\r\n    }\r\n\r\n    address[] public voters;\r\n    mapping(address => Voter) public voterDetails;\r\n\r\n    // request to be added as a voter..\r\n\r\n    function requestVoter(string _name) public {\r\n        Voter memory newVoter = Voter({\r\n            voterAddress : msg.sender,\r\n            name : _name,\r\n            hasVoted : false,\r\n            isVerified: false\r\n        });\r\n\r\n        voterDetails[msg.sender] = newVoter; // msg.sender address is mapped to the newVoter object.\r\n        voters.push(msg.sender);\r\n        voterCount +=1;\r\n    }\r\n\r\n    // get total number of voters..\r\n\r\n    function getVoterCount() public view returns(uint){\r\n        return voterCount;\r\n    }\r\n\r\n    function verifyVoter(address _address) public onlyAdmin {\r\n        voterDetails[_address].isVerified = true;\r\n    }\r\n\r\n    function vote(uint candidateId) public {\r\n        require(voterDetails[msg.sender].hasVoted == false);\r\n        require(voterDetails[msg.sender].isVerified == true);\r\n        require(start == true);\r\n        require(end == false);\r\n\r\n        proposals[candidateId].voteCount += 1;\r\n        voterDetails[msg.sender].hasVoted = true;\r\n    }\r\n\r\n    function startElection() public onlyAdmin {\r\n        start = true;\r\n        end = false;\r\n    }\r\n\r\n    function getStart() public view returns(bool){\r\n        return start;\r\n    }\r\n\r\n    function getEnd() public view returns(bool){\r\n        return end;\r\n    }\r\n}",
  "sourcePath": "C:\\Users\\User\\Desktop\\development\\voting-dapp\\voting-dApp\\contracts\\SmartContract.sol",
  "compiler": {
    "name": "solc",
    "version": "0.4.17+commit.bdeb9e52.Emscripten.clang"
  },
  "schemaVersion": "3.4.4",
  "updatedAt": "2021-12-30T14:42:57.005Z",
  "devdoc": {
    "methods": {}
  },
  "userdoc": {
    "methods": {}
  }
}